:1000000012C02CC09CC02AC029C028C06EC026C007
:1000100025C024C023C022C021C020C01FC01EC0D4
:100020001DC01CC01BC011241FBECFE5D4E0DEBF25
:10003000CDBF11E0A0E6B0E0E6E4FDE002C005902F
:100040000D92AE37B107D9F711E0AEE7B1E001C0CC
:100050001D92A539B107E1F702D073C6D1CFCF9376
:10006000DF931DD08FEF84BB81E0A2D281E060E0FE
:1000700078D280E690E0CAD280E061E03CD381E7AC
:1000800090E0C4D2C0E9D1E081E008D228E833E1B1
:10009000CE010197F1F721503040D1F7F5CF109202
:1000A00082011092830110928401109285011092B6
:1000B0009401109293011092860110928001109287
:1000C0007E018EB589608EBD89B7806189BF80EA67
:1000D00090E09BBD8ABD85B7886085BF8BB780687F
:1000E0008BBF8FB780688FBF08951F920F920FB696
:1000F0000F9211248F939F93809190019091910181
:10010000019690939101809390019F918F910F9010
:100110000FBE0F901F9018951092820110928301CC
:1001200010928401109285011092860185B7837F19
:1001300085BF85B7886085BF1092800108951F92A2
:100140000F920FB60F921124DF92EF92FF920F934E
:100150001F932F933F934F935F936F937F938F934F
:100160009F93AF93BF93CF93DF93EF93FF938BB79F
:100170008F778BBF78948091930190919401892B14
:10018000E1F4C0919001D0919101109291011092EF
:10019000900112BED090860181E0D81609F44EC0BD
:1001A000D81618F183E0D81609F4DCC084E0D8161C
:1001B00009F494C08BB780688BBFFF91EF91DF91FA
:1001C000CF91BF91AF919F918F917F916F915F91EF
:1001D0004F913F912F911F910F91FF90EF90DF90E2
:1001E0000F900FBE0F901F9018958091800188236B
:1001F00009F404C1BE0180E090E0DBD27B018C01F8
:1002000020E030E84AE454E47ED218160CF064C0D2
:10021000C801B70120E030E847E754E49FD28823C3
:100220000CF05AC081E08093860185B7837F85BF3B
:1002300085B7886085BF10928001BCCFBE0180E089
:1002400090E0B7D27B018C0120E030E84AEC53E427
:100250005AD2181654F4C801B70120E030E847EF2D
:1002600053E47CD288230CF4DFC0C95CD040AC9747
:1002700098F580917E01882309F4C7C080917C00A5
:10028000873009F4DEC080917C0020917B009927A3
:1002900087FD90950196332727FD309582179307A8
:1002A00009F4D4C080917C00873009F4DCC08091CF
:1002B0007C008F5F80937C00E0917C00FF27E7FD4E
:1002C000F09580918701E857FE4F808380917B00F5
:1002D0008F3F11F410927B001FDF6CCF8091800163
:1002E000882309F467CF90918401809185018095DE
:1002F000981709F05FCF80917C00873009F4B6C071
:1003000080917C0020917B00992787FD9095019634
:10031000332727FD30958217930709F4ACC08091ED
:100320007C00873009F4B7C080917C008F5F809398
:100330007C00E0917C00FF27E7FDF095809184012F
:10034000E857FE4F808380918401809387018091DC
:100350007B008F3F09F49CC010927E0110929201A5
:10036000DBDE28CF80918001882329F0E397629714
:1003700008F45BCFB1CFCE018A97409748F1BE0118
:1003800080E090E016D27B018C012AE939E148E156
:1003900053E4B9D118160CF09FCFC801B70126E677
:1003A00036EE49E353E4DAD188230CF095CFE0919F
:1003B0007F01F0E0EE57FE4F20813091810181E016
:1003C00090E002C0880F991F3A95E2F7282B20830E
:1003D000809181018F5F80938101809181018830BC
:1003E00069F41092810180917F018F5F80937F017A
:1003F00080917F01843011F48093860185B78C60F1
:1004000085BF81E080938001D5CE809192018F5F7E
:100410008093920180919201843009F05DCF81E058
:1004200080937E0179DEC6CE83E0809386011092B0
:10043000810110927F0185B78C6085BFD0928001C9
:10044000B9CE80917B00882309F01DCF80917B007D
:100450008F5F80937B0080917B00883009F022CFF2
:1004600010927B001FCF10927C0026CF80917B00E2
:10047000882309F045CF80917B008F5F80937B00BC
:1004800080917B00883009F04ACF10927B0047CFE3
:1004900010927B0061CF10927C004BCF8823E9F44F
:1004A00080917B008F3F59F1E0917B00FF27E7FDB2
:1004B000F095E857FE4FE08190917B0080917C00A1
:1004C0009817A1F080917B008730E1F080917B004C
:1004D0008F5F80937B008E2F089580917B008F3FEC
:1004E00019F780917B008F3FC1F3DECF8FEF8093B0
:1004F0007C0080917C0080937B008E2F0895EFEF2D
:100500008E2F089510927B008E2F089584B3807FE4
:1005100084BBC09AC19882E08A95F1F722E035E069
:10052000C29A822F8A95F1F783B38295807F922FAA
:100530009A95F1F7C298932F9A95F1F7C29A922F54
:100540009A95F1F793B3922F9A95F1F7C298932F5A
:100550009A95F1F787FDE4CFC09884B38F6084BB90
:100560000895282F662311F1C19A82E08A95F1F748
:10057000C29A85B3922F92959F70807F982B95BBDE
:1005800095E0892F8A95F1F7C298892F8A95F1F71E
:10059000C29A85B32F70807F822B85BB892F8A9565
:1005A000F1F7C2989A95F1F7B1DF0895C198DDCFC0
:1005B0001F93182F2CE231E040E951E0CA01019766
:1005C000F1F721503040D1F784B38F6084BBBA9AE1
:1005D000B99AB89A85B3807F85BBC298C098C198F4
:1005E00081E08A95F1F7C29AA99A85E0982F9A95A9
:1005F000F1F7C2988A95F1F789DF812F8C6060E06E
:10060000B0DF88E260E0ADDF1F910895CF93DF9304
:10061000EC018881882331F061E0A3DF2196888195
:100620008823D1F7DF91CF910895EF92FF920F9336
:100630001F93DF93CF9300D000D00F92CDB7DEB7DA
:100640009C018B017E010894E11CF11C85E0F701FF
:1006500011928A95E9F72115310581F0FE01359651
:10066000C9016AE070E00FD38083C9016AE070E0DD
:100670000AD39B0131976115710591F7FFEF0F3F89
:100680001F0741F125E030E0201B310B25303105FB
:10069000ACF4F701E20FF31F808189010F5F1F4F58
:1006A000E00EF11E05C0F70181917F010F5F1F4F22
:1006B000805D61E056DF05301105ACF30F900F90BF
:1006C0000F900F900F90CF91DF911F910F91FF909E
:1006D000EF9008958981882359F420E030E02F5F5E
:1006E0003F4FF701E20FF31F80818823C1F3CECF84
:1006F00020E030E0D2CF883228F461118064806835
:1007000060E02FDF0895A8E1B0E0E8E8F3E0EEC292
:1007100069837A838B839C832D833E834F835887A1
:1007200089E0E82EF12CEC0EFD1ECE010196B701FA
:10073000D9D18E010F5E1F4FCE010596B801D2D1DF
:100740008985823038F08989823020F0C701B8016C
:1007500041D201C08FEF6896E6E0E4C2A8E1B0E0C4
:10076000E3EBF3E0C3C269837A838B839C832D839D
:100770003E834F83588789E0E82EF12CEC0EFD1E56
:10078000CE010196B701AED18E010F5E1F4FCE0193
:100790000596B801A7D18985823038F089898230E1
:1007A00020F0C701B80116D201C081E06896E6E0EA
:1007B000B9C2A8E0B0E0EEEDF3E094C27B018C0199
:1007C000611571058105910519F482E089835FC087
:1007D00083E089838EE1C82ED12CDC82CB82ED822E
:1007E000FE820F831887C801B70158D0FC013197EA
:1007F000F7FF3BC0222733272E1B3F0B5701680111
:10080000022E04C0D694C794B794A7940A94D2F742
:1008100040E050E060E070E081E090E0A0E0B0E017
:1008200004C0880F991FAA1FBB1F2A95D2F70197F2
:10083000A109B1098E219F21A023B1230097A10511
:10084000B10521F041E050E060E070E04A295B2909
:100850006C297D294D835E836F8378878EE190E0DC
:100860008E1B9F0B9C838B8312C0309781F00E2EC2
:1008700004C0EE0CFF1C001F111F0A94D2F7ED827A
:10088000FE820F831887CE1ADF0ADC82CB821A829F
:10089000CE01019652D02896EAE040C2EF92FF9234
:1008A0000F931F937B018C0180E0E81680E0F8062F
:1008B00081E0080780E0180788F48FEFE816F1045C
:1008C0000105110531F028F088E090E0A0E0B0E0EB
:1008D00017C080E090E0A0E0B0E012C080E0E81631
:1008E00080E0F80680E0080781E0180728F088E13A
:1008F00090E0A0E0B0E004C080E190E0A0E0B0E0D3
:1009000020E230E040E050E0281B390B4A0B5B0B43
:1009100004C016950795F794E7948A95D2F7F701E6
:10092000E358FF4F8081281B310941095109C90152
:100930001F910F91FF90EF900895DF92EF92FF9239
:100940000F931F93FC01E480F58006811781D1800D
:100950008081823048F480E090E0A0E1B0E0E82AB5
:10096000F92A0A2B1B2BA5C0843009F49FC08230C2
:1009700021F4EE24FF24870105C0E114F1040105F0
:10098000110519F4E0E0F0E096C0628173819FEFF9
:10099000623879070CF05BC022E83FEF261B370B6B
:1009A0002A3131052CF020E030E040E050E02AC050
:1009B000B801A701022E04C0769567955795479513
:1009C0000A94D2F781E090E0A0E0B0E004C0880F84
:1009D000991FAA1FBB1F2A95D2F70197A109B10938
:1009E0008E219F21A023B1230097A105B10521F0FD
:1009F00081E090E0A0E0B0E09A01AB01282B392B18
:100A00004A2B5B2BDA01C9018F779070A070B07010
:100A100080349105A105B10539F427FF09C0205C98
:100A20003F4F4F4F5F4F04C0215C3F4F4F4F5F4FD1
:100A3000E0E0F0E02030A0E03A07A0E04A07A0E4C0
:100A40005A0710F0E1E0F0E079018A0127C0603830
:100A5000710564F5FB01E158FF4FD801C7018F779D
:100A60009070A070B07080349105A105B10539F483
:100A7000E7FE0DC080E490E0A0E0B0E004C08FE3AA
:100A800090E0A0E0B0E0E80EF91E0A1F1B1F17FF60
:100A900005C016950795F794E794319687E016956B
:100AA0000795F794E7948A95D1F705C0EE24FF24C3
:100AB0008701EFEFF0E06E2F679566276795902F1F
:100AC0009F77D794DD24D7948E2F8695492F462B78
:100AD000582F5D29B701CA011F910F91FF90EF9028
:100AE000DF900895FC01DB01408151812281622F5A
:100AF0006F7770E0221F2227221F9381892F880F92
:100B0000822B282F30E0991F9927991F11969C93CB
:100B1000119721153105A9F541155105610571059B
:100B200011F482E037C082E89FEF13969C938E9376
:100B300012979A01AB0167E0220F331F441F551F24
:100B40006A95D1F783E08C930DC0220F331F441FA9
:100B5000551F12968D919C911397019713969C9314
:100B60008E931297203080E0380780E0480780E4B9
:100B7000580758F314962D933D934D935C93179714
:100B800008952F3F310579F441155105610571052F
:100B900019F484E08C93089564FF03C081E08C9382
:100BA00012C01C9210C02F57304013963C932E93C6
:100BB000129783E08C9387E0440F551F661F771FC1
:100BC0008A95D1F7706414964D935D936D937C93E1
:100BD000179708951F93DC01FB019C91923008F454
:100BE00047C08081823008F443C0943051F411969C
:100BF0001C91843099F58181682F70E0611B710927
:100C00003FC0843021F0923031F48230B9F18181DB
:100C1000882389F12DC011961C9111978230F1F033
:100C200081811817D9F412962D913C9113978281E6
:100C300093818217930794F028173907BCF0149614
:100C40008D919D910D90BC91A02D2481358146817F
:100C50005781281739074A075B0718F4112341F019
:100C60000AC082179307A407B50740F4112319F0AF
:100C700061E070E005C06FEF7FEF02C060E070E000
:100C8000CB011F91089597FB092E07260AD077FD07
:100C900004D00CD006D000201AF4709561957F4FD7
:100CA0000895F6F7909581959F4F0895AA1BBB1B59
:100CB00051E107C0AA1FBB1FA617B70710F0A61B5C
:100CC000B70B881F991F5A95A9F780959095BC017D
:100CD000CD0108952F923F924F925F926F927F9233
:100CE0008F929F92AF92BF92CF92DF92EF92FF923C
:100CF0000F931F93CF93DF93CDB7DEB7CA1BDB0BE8
:100D00000FB6F894DEBF0FBECDBF09942A8839888C
:100D100048885F846E847D848C849B84AA84B98493
:100D2000C884DF80EE80FD800C811B81AA81B9819F
:100D3000CE0FD11D0FB6F894DEBF0FBECDBFED01B3
:060D40000895F894FFCFB6
:100D460049522052656D6F74654465636F646572C0
:100D5600004B657920436F64653A00FFFF0001028E
:100D66000203030303040404040404040405050540
:100D7600050505050505050505050505050606061A
:100D860006060606060606060606060606060606FD
:100D960006060606060606060606060606070707EA
:100DA60007070707070707070707070707070707CD
:100DB60007070707070707070707070707070707BD
:100DC60007070707070707070707070707070707AD
:100DD600070707070707070707070707070808089A
:100DE600080808080808080808080808080808087D
:100DF600080808080808080808080808080808086D
:100E0600080808080808080808080808080808085C
:100E1600080808080808080808080808080808084C
:100E2600080808080808080808080808080808083C
:100E3600080808080808080808080808080808082C
:100E4600080808080808080808080808080808081C
:0E0E5600080808080808080808080808080026
:00000001FF
